{
  "contractName": "Decentragram",
  "abi": [
    {
      "constant": true,
      "inputs": [],
      "name": "name",
      "outputs": [
        {
          "name": "",
          "type": "string"
        }
      ],
      "payable": false,
      "stateMutability": "view",
      "type": "function",
      "signature": "0x06fdde03"
    },
    {
      "constant": true,
      "inputs": [
        {
          "name": "",
          "type": "uint256"
        }
      ],
      "name": "images",
      "outputs": [
        {
          "name": "id",
          "type": "uint256"
        },
        {
          "name": "hash",
          "type": "string"
        },
        {
          "name": "description",
          "type": "string"
        },
        {
          "name": "tipAmount",
          "type": "uint256"
        },
        {
          "name": "author",
          "type": "address"
        }
      ],
      "payable": false,
      "stateMutability": "view",
      "type": "function",
      "signature": "0x84856482"
    },
    {
      "constant": true,
      "inputs": [],
      "name": "imageCount",
      "outputs": [
        {
          "name": "",
          "type": "uint256"
        }
      ],
      "payable": false,
      "stateMutability": "view",
      "type": "function",
      "signature": "0x92053b63"
    },
    {
      "inputs": [],
      "payable": false,
      "stateMutability": "nonpayable",
      "type": "constructor",
      "signature": "constructor"
    },
    {
      "anonymous": false,
      "inputs": [
        {
          "indexed": false,
          "name": "id",
          "type": "uint256"
        },
        {
          "indexed": false,
          "name": "hash",
          "type": "string"
        },
        {
          "indexed": false,
          "name": "description",
          "type": "string"
        },
        {
          "indexed": false,
          "name": "tipAmount",
          "type": "uint256"
        },
        {
          "indexed": false,
          "name": "author",
          "type": "address"
        }
      ],
      "name": "ImageCreated",
      "type": "event",
      "signature": "0xc1d8dfa99b3f84f95d3f0bc4a768addeb97b83b20aef7f9cb6729e126bafd2f9"
    },
    {
      "anonymous": false,
      "inputs": [
        {
          "indexed": false,
          "name": "id",
          "type": "uint256"
        },
        {
          "indexed": false,
          "name": "hash",
          "type": "string"
        },
        {
          "indexed": false,
          "name": "description",
          "type": "string"
        },
        {
          "indexed": false,
          "name": "tipAmount",
          "type": "uint256"
        },
        {
          "indexed": false,
          "name": "author",
          "type": "address"
        }
      ],
      "name": "ImageTipped",
      "type": "event",
      "signature": "0x1be5317bca8d3f70dc1efe89958be71bff36cdca33fc00a6423e25eb2f1d492f"
    },
    {
      "constant": false,
      "inputs": [
        {
          "name": "_imgHash",
          "type": "string"
        },
        {
          "name": "_description",
          "type": "string"
        }
      ],
      "name": "uploadImage",
      "outputs": [],
      "payable": false,
      "stateMutability": "nonpayable",
      "type": "function",
      "signature": "0xa91b8314"
    }
  ],
  "bytecode": "0x6080604052600060015534801561001557600080fd5b506040805190810160405280600c81526020017f446563656e7472616772616d000000000000000000000000000000000000000081525060009080519060200190610061929190610067565b5061010c565b828054600181600116156101000203166002900490600052602060002090601f016020900481019282601f106100a857805160ff19168380011785556100d6565b828001600101855582156100d6579182015b828111156100d55782518255916020019190600101906100ba565b5b5090506100e391906100e7565b5090565b61010991905b808211156101055760008160009055506001016100ed565b5090565b90565b61098d8061011b6000396000f3fe608060405260043610610062576000357c0100000000000000000000000000000000000000000000000000000000900463ffffffff16806306fdde031461006757806384856482146100f757806392053b6314610258578063a91b831414610283575b600080fd5b34801561007357600080fd5b5061007c6103e2565b6040518080602001828103825283818151815260200191508051906020019080838360005b838110156100bc5780820151818401526020810190506100a1565b50505050905090810190601f1680156100e95780820380516001836020036101000a031916815260200191505b509250505060405180910390f35b34801561010357600080fd5b506101306004803603602081101561011a57600080fd5b8101908080359060200190929190505050610480565b6040518086815260200180602001806020018581526020018473ffffffffffffffffffffffffffffffffffffffff1673ffffffffffffffffffffffffffffffffffffffff168152602001838103835287818151815260200191508051906020019080838360005b838110156101b2578082015181840152602081019050610197565b50505050905090810190601f1680156101df5780820380516001836020036101000a031916815260200191505b50838103825286818151815260200191508051906020019080838360005b838110156102185780820151818401526020810190506101fd565b50505050905090810190601f1680156102455780820380516001836020036101000a031916815260200191505b5097505050505050505060405180910390f35b34801561026457600080fd5b5061026d610606565b6040518082815260200191505060405180910390f35b34801561028f57600080fd5b506103e0600480360360408110156102a657600080fd5b81019080803590602001906401000000008111156102c357600080fd5b8201836020820111156102d557600080fd5b803590602001918460018302840111640100000000831117156102f757600080fd5b91908080601f016020809104026020016040519081016040528093929190818152602001838380828437600081840152601f19601f8201169050808301925050505050505091929192908035906020019064010000000081111561035a57600080fd5b82018360208201111561036c57600080fd5b8035906020019184600183028401116401000000008311171561038e57600080fd5b91908080601f016020809104026020016040519081016040528093929190818152602001838380828437600081840152601f19601f82011690508083019250505050505050919291929050505061060c565b005b60008054600181600116156101000203166002900480601f0160208091040260200160405190810160405280929190818152602001828054600181600116156101000203166002900480156104785780601f1061044d57610100808354040283529160200191610478565b820191906000526020600020905b81548152906001019060200180831161045b57829003601f168201915b505050505081565b6002602052806000526040600020600091509050806000015490806001018054600181600116156101000203166002900480601f0160208091040260200160405190810160405280929190818152602001828054600181600116156101000203166002900480156105325780601f1061050757610100808354040283529160200191610532565b820191906000526020600020905b81548152906001019060200180831161051557829003601f168201915b505050505090806002018054600181600116156101000203166002900480601f0160208091040260200160405190810160405280929190818152602001828054600181600116156101000203166002900480156105d05780601f106105a5576101008083540402835291602001916105d0565b820191906000526020600020905b8154815290600101906020018083116105b357829003601f168201915b5050505050908060030154908060040160009054906101000a900473ffffffffffffffffffffffffffffffffffffffff16905085565b60015481565b6000825111151561061c57600080fd5b6000815111151561062c57600080fd5b600073ffffffffffffffffffffffffffffffffffffffff163373ffffffffffffffffffffffffffffffffffffffff161415151561066857600080fd5b60016000815480929190600101919050555060a0604051908101604052806001548152602001838152602001828152602001600081526020013373ffffffffffffffffffffffffffffffffffffffff168152506002600060015481526020019081526020016000206000820151816000015560208201518160010190805190602001906106f69291906108bc565b5060408201518160020190805190602001906107139291906108bc565b506060820151816003015560808201518160040160006101000a81548173ffffffffffffffffffffffffffffffffffffffff021916908373ffffffffffffffffffffffffffffffffffffffff1602179055509050507fc1d8dfa99b3f84f95d3f0bc4a768addeb97b83b20aef7f9cb6729e126bafd2f960015483836000336040518086815260200180602001806020018581526020018473ffffffffffffffffffffffffffffffffffffffff1673ffffffffffffffffffffffffffffffffffffffff168152602001838103835287818151815260200191508051906020019080838360005b838110156108135780820151818401526020810190506107f8565b50505050905090810190601f1680156108405780820380516001836020036101000a031916815260200191505b50838103825286818151815260200191508051906020019080838360005b8381101561087957808201518184015260208101905061085e565b50505050905090810190601f1680156108a65780820380516001836020036101000a031916815260200191505b5097505050505050505060405180910390a15050565b828054600181600116156101000203166002900490600052602060002090601f016020900481019282601f106108fd57805160ff191683800117855561092b565b8280016001018555821561092b579182015b8281111561092a57825182559160200191906001019061090f565b5b509050610938919061093c565b5090565b61095e91905b8082111561095a576000816000905550600101610942565b5090565b9056fea165627a7a72305820e7d776ab2a1f032e113e42ce1c9ff463405a502cc9fb73ccbef9067ea5fcd9d50029",
  "source": "pragma solidity ^0.5.0;\r\n\r\ncontract Decentragram {\r\n    string public name;\r\n    uint256 public imageCount = 0;\r\n    mapping(uint256 => Image) public images;\r\n\r\n    struct Image {\r\n        uint256 id;\r\n        string hash;\r\n        string description;\r\n        uint256 tipAmount;\r\n        address payable author;\r\n    }\r\n\r\n    event ImageCreated(\r\n        uint256 id,\r\n        string hash,\r\n        string description,\r\n        uint256 tipAmount,\r\n        address payable author\r\n    );\r\n\r\n    event ImageTipped(\r\n        uint256 id,\r\n        string hash,\r\n        string description,\r\n        uint256 tipAmount,\r\n        address payable author\r\n    );\r\n\r\n    constructor() public {\r\n        name = \"Decentragram\";\r\n    }\r\n\r\n    function uploadImage(string memory _imgHash, string memory _description)\r\n        public\r\n    {\r\n        require(bytes(_imgHash).length > 0);\r\n        require(bytes(_description).length > 0);\r\n        require(msg.sender != address(0));\r\n\r\n        imageCount++;\r\n\r\n        images[imageCount] = Image(\r\n            imageCount,\r\n            _imgHash,\r\n            _description,\r\n            0,\r\n            msg.sender\r\n        );\r\n\r\n        emit ImageCreated(imageCount, _imgHash, _description, 0, msg.sender);\r\n    }\r\n}\r\n",
  "sourcePath": "D:/Polygon-Fellowship/Week-4/Social-Media-dApp/src/contracts/Decentragram.sol",
  "compiler": {
    "name": "solc",
    "version": "0.5.0+commit.1d4f565a.Emscripten.clang"
  },
  "schemaVersion": "3.0.2",
  "updatedAt": "2022-07-10T17:26:51.913Z",
  "devdoc": {
    "methods": {}
  },
  "userdoc": {
    "methods": {}
  }
}